:020000040000FA
:100000000C9462000C948A000C948A000C948A0070
:100010000C948A000C948A000C948A000C948A0038
:100020000C948A000C948A000C948A000C948A0028
:100030000C948A000C948A000C948A000C948A0018
:100040000C94FC040C948A000C948A000C948A0092
:100050000C948A000C948A000C948A000C948A00F8
:100060000C9446050C948A00000000002400270030
:100070002A0000000000250028002B0000000000DE
:1000800023002600290004040404040404040202DA
:100090000202020203030303030301020408102007
:1000A0004080010204081020010204081020000012
:1000B0000008000201000003040700000000000027
:1000C0000000650611241FBECFEFD8E0DEBFCDBF14
:1000D00011E0A0E0B1E0E2EFF2E102C005900D9284
:1000E000AA37B107D9F722E0AAE7B1E001C01D9213
:1000F000A83CB207E1F710E0C2E6D0E004C02197C7
:10010000FE010E946809C136D107C9F70E94DC06CA
:100110000C9477090C94000096E0899FD00111247B
:10012000A75ABD4F90967C936E935F9791E09196FE
:100130009C939197E091C602F091C7029091C502FD
:10014000992339F0309751F0811108C080917502E0
:100150000994309719F05C968C91FACF0895CF925C
:10016000DF92EF92FF920F931F9396E0899FF00129
:100170001124E75AFD4F11A2278D30A121303105FE
:1001800051F178F02230310509F451C023303105A6
:1001900009F452C01F910F91FF90EF90DF90CF9024
:1001A00008956623B9F361E070E00E948C002FB7D8
:1001B000F89480913D0290913E02A0913F02B0914F
:1001C00040022FBF8093B1029093B202A093B3027A
:1001D000B093B402DFCF9FB7F894C0903D02D090A7
:1001E0003E02E0903F02F09040029FBF0091B102BA
:1001F0001091B2022091B3023091B402C01AD10A18
:10020000E20AF30A0091C3021091C40230E020E038
:100210000C151D052E053F0550F462E070E01F919E
:100220000F91FF90EF90DF90CF900C948C006111B4
:10023000B1CF63E070E0F3CF70E060E0F0CF8330E7
:1002400081F028F4813099F08230A9F00895873048
:10025000A9F08830C9F08430B1F4809180008F7D9E
:1002600003C0809180008F7780938000089584B5CB
:100270008F7784BD089584B58F7DFBCF8091B000CA
:100280008F778093B00008958091B0008F7DF9CF73
:10029000CF93DF93282F30E0F901E255FF4F84918F
:1002A000F901E656FF4FD491F901EA57FF4FC49187
:1002B000CC23A1F081110E941F01EC2FF0E0EE0F82
:1002C000FF1FE458FF4FA591B491EC91ED2381E01D
:1002D00090E009F480E0DF91CF91089580E090E014
:1002E000FACF1F93CF93DF93282F30E0F901E25527
:1002F000FF4F8491F901E656FF4FD491F901EA5777
:10030000FF4FC491CC23A9F0162F81110E941F0129
:10031000EC2FF0E0EE0FFF1FEE58FF4FA591B491C8
:100320008FB7F894EC91111108C0D095DE23DC93BF
:100330008FBFDF91CF911F910895DE2BF8CFCF9320
:10034000DF9390E0FC01E656FF4F24918A579F4FC0
:10035000FC0184918823C9F090E0880F991FFC016B
:10036000E859FF4FA591B491FC01EE58FF4FC5919C
:10037000D49161110DC09FB7F8948C912095822380
:100380008C938881282328839FBFDF91CF91089584
:10039000623051F49FB7F8943C91822F809583236B
:1003A0008C93E8812E2BEFCF8FB7F894EC912E2B06
:1003B0002C938FBFEACF3FB7F89480913902909188
:1003C0003A02A0913B02B0913C0226B5A89B05C021
:1003D0002F3F19F00196A11DB11D3FBFBA2FA92FC4
:1003E000982F8827BC01CD01620F711D811D911DC1
:1003F00042E0660F771F881F991F4A95D1F708952D
:100400008F929F92AF92BF92CF92DF92EF92FF9224
:100410004B015C010E94DB016B017C010E94DB014E
:100420006C197D098E099F09683E7340810591050D
:10043000A8F321E0821A9108A108B10888EEC80E3D
:1004400083E0D81EE11CF11C81149104A104B104C5
:1004500029F7FF90EF90DF90CF90BF90AF909F90E3
:100460008F900895862F642F0C949F01862F642F00
:100470000C947101862F0C94480108950895AF9251
:10048000BF92CF92DF92EF92FF920F931F93CF9381
:10049000DF936C017B018B01040F151FEB015E01E3
:1004A000AE18BF08C017D10759F06991D601ED9178
:1004B000FC910190F081E02DC6010995892B79F717
:1004C000C501DF91CF911F910F91FF90EF90DF90C9
:1004D000CF90BF90AF90089508952091BB01260F53
:1004E0003327331F21323105ECF420910402FC0143
:1004F00090E080E0243069F082E00895A091BB0193
:100500002191AC0145565E4FA40FB52FB11D2C9320
:100510000196861798F38091BB01680F6093BB0129
:1005200080E0089581E008951092040281E08093B4
:1005300003021092DE0161E082E10E94710161E03C
:1005400083E10E947101E9EBF0E080818E7F80837E
:1005500080818D7F808388E48093B80085E48093D8
:10056000BC000895CF93DF9391E090939A01882384
:10057000B9F0C091B800D091BA008091BC008A7BDC
:100580008093BC0060E082E10E94710160E083E141
:100590000E9471010E949402D093BA00C093B800E7
:1005A000DF91CF9108950895E09133028091320256
:1005B000E81730F4F0E0E658FE4F808190E00895AF
:1005C0008FEF9FEF089590913302809132022FEFC9
:1005D0003FEF981748F4E92FF0E0E658FE4F2081EE
:1005E00030E09F5F90933302C901089580913202F9
:1005F00090913302891B990B0895CF92DF92EF926D
:10060000FF920F931F93CF93DF937C01CB018A015D
:1006100020910A02222389F0EB016B01C40ED51E42
:10062000CC15DD0569F06991D701ED91FC91019040
:10063000F081E02DC7010995F3CF642F0E946D0270
:10064000C801DF91CF911F910F91FF90EF90DF9044
:10065000CF900895CF93DF931F92CDB7DEB7698314
:1006600020910A022223F9F020913002203258F022
:1006700021E030E0FC013383228390E080E00F90A2
:10068000DF91CF91089580913102E82FF0E0E55F8E
:10069000FD4F998190838F5F809331028093300268
:1006A00081E090E0ECCF61E0CE0101960E946D0206
:1006B000F7CFCF92DF92EF92FF920F931F93CF93DA
:1006C000DF93FC01C48121E020930A02C0932B0236
:1006D00010923102109230028385682B81E492E0FF
:1006E0000E942A03D0913002D13208F092C00E94B9
:1006F000DB016B017C0180910402811165C082E005
:100700008093040281E0809303028FEF80930202C2
:1007100010920102D0930002ABE0B2E0E0EEF1E013
:1007200080E0D81385C01092DF018091DF01CC0FEB
:10073000C82BC093DF018091DE01813009F07CC0BD
:100740001092DE010E94DB016B017C018091DF01D0
:100750008093BB008091060290910702A09108024D
:10076000B0910902892B8A2B8B2B99F00E94DB0117
:1007700000910602109107022091080230910902AF
:100780006C197D098E099F09061717072807390775
:10079000E0F18091BC0083FDD9CF85EC8093BC0053
:1007A0000E94DB016B017C0180910402823009F41C
:1007B00045C0809102028F3F61F180910202803238
:1007C00041F18091020225C08091060290910702BA
:1007D000A0910802B0910902892B8A2B8B2B09F476
:1007E0008ACF0E94DB01009106021091070220913E
:1007F0000802309109026C197D098E099F090617BC
:1008000017072807390708F076CF809105020E9464
:10081000B202109231021092300210920A02DF915D
:10082000CF911F910F91FF90EF90DF90CF9008959F
:100830009D9191938F5F75CF85EEB0CF8091060229
:1008400090910702A0910802B0910902892B8A2B8E
:100850008B2B09F4A9CF0E94DB01009106021091B5
:10086000070220910802309109026C197D098E0956
:100870009F09061717072807390708F095CFC5CF36
:1008800090E080E00895FC0101900020E9F73197A5
:10089000AF01481B590BBC018DE492E00C943F0260
:1008A0000F931F93CF938C01C62F0E9459036C2F77
:1008B0006460C8010E9459036C2F6B7FC8010E94BD
:1008C000590383EC90E00197F1F7CF911F910F91BD
:1008D00008950F931F93CF93DF938C01D62FC42FCE
:1008E000607F642B0E94500480E1D89FB0011124E6
:1008F0006C2BC801DF91CF911F910F910C94500484
:10090000CF93DF93CDB7DEB728970FB6F894DEBF4D
:100910000FBECDBF98E0E5E1F1E0DE011196019058
:100920000D929A95E1F790915502961708F46FEFA2
:10093000262F30E0220F331F41E050E04C0F5D1FA7
:10094000240F351FF9016081680F606840E08DE475
:1009500092E028960FB6F894DEBF0FBECDBFDF91B0
:10096000CF910C94690440E061E08DE492E00E9434
:1009700069048BE39FE10197F1F7089541E00E943C
:10098000690481E090E0089585ED8093BC0080913A
:10099000060290910702A0910802B0910902079601
:1009A000A11DB11D23E0B695A795979587952A952A
:1009B000D1F72091BC0024FD03C0109204020895D9
:1009C000409106025091070260910802709109025D
:1009D000452B462B472B69F30097A105B10541F044
:1009E0002AE22A95F1F700C00197A109B109E1CFE8
:1009F000809105020C94B2021F920F920FB60F92D3
:100A000011242F933F938F939F93AF93BF93809124
:100A10003D0290913E02A0913F02B0914002309180
:100A2000380223E0230F2D3758F50196A11DB11D83
:100A30002093380280933D0290933E02A0933F02A0
:100A4000B09340028091390290913A02A0913B020A
:100A5000B0913C020196A11DB11D80933902909383
:100A60003A02A0933B02B0933C02BF91AF919F9199
:100A70008F913F912F910F900FBE0F901F9018955F
:100A800026E8230F0296A11DB11DD2CF1F920F920F
:100A90000FB60F9211242F933F934F935F936F9351
:100AA0007F938F939F93AF93BF93EF93FF93809127
:100AB000B900887F803609F44AC0F0F5883209F41D
:100AC000A7C018F5803109F49BC0B8F4882309F455
:100AD000F9C0883009F494C0FF91EF91BF91AF91B4
:100AE0009F918F917F916F915F914F913F912F9146
:100AF0000F900FBE0F901F901895883109F488C091
:100B0000803251F78093020214C0803409F49DC0F2
:100B100040F48033B9F38833F9F68093020285EC10
:100B2000B0C0803509F485C0883509F496C0883492
:100B300099F60E94C404D0CF883909F48CC038F5E6
:100B4000883729F050F4883611F0803729F683E091
:100B5000809304021092DD0157C0883809F47BC0ED
:100B6000803919F0803809F0B7CF8091DD018032EB
:100B700008F071C0E091DD0181E08E0F8093DD010E
:100B80008091BB00F0E0E354FE4F80833DC0803B8A
:100B900039F0E0F4803A09F479C0883A09F09CCF42
:100BA00084E0809304021092BC011092BB01E0919A
:100BB0002E02F0912F0209958091BB0181110FC087
:100BC00081E08093BB0110929B0109C0803C09F435
:100BD000A6CF883C09F4A3CF883B09F07DCFE091F4
:100BE000BC0181E08E0F8093BC01F0E0E556FE4F22
:100BF00080818093BB009091BC018091BB0129C092
:100C00008091DF018093BB0085EC8093BC0064CFB2
:100C10009091010280910002981758F5E09101022D
:100C200081E08E0F80930102F0E0E052FE4F808160
:100C3000E9CFE091010281E08E0F80930102809163
:100C4000BB00F0E0E052FE4F808390910102809162
:100C500000029817C8F285E8D8CFE091010281E040
:100C60008E0F809301028091BB00F0E0E052FE4FB6
:100C700080838091030281115CCF81E08093DE014B
:100C800084EA8093BC001092040226CF85EC809306
:100C9000BC00109204028091DD01803230F4E091BA
:100CA000DD01F0E0E354FE4F10826091DD0170E061
:100CB000E0912C02F0912D028DEB91E009951092BC
:100CC000DD010ACF1092020234CF1092440210923A
:100CD000430288EE93E0A0E0B0E080934502909359
:100CE0004602A0934702B093480281E291E09093BC
:100CF00042028093410210925B0210925F021092B6
:100D00005E02109260028FE391E090935A0280930A
:100D10005902E5E7F2E010821482138215823696BA
:100D200082E0E13BF807B9F785E091E09093BC02DF
:100D30008093BB0282E091E09093BE028093BD025B
:100D400084E08093BF0283E08093C00289E091E059
:100D50009093BA028093B9028AE090E09093C20225
:100D60008093C10284EF91E09093C4028093C30208
:100D70001092C7021092C6021092B5021092B602EB
:100D80001092B7021092B8021092C502109250024F
:100D900010924F0283E391E090934E0280934D02B4
:100DA00080E28093510280E18093560282E080933A
:100DB0005702109258020895789484B5826084BDD9
:100DC00084B5816084BD85B5826085BD85B581604F
:100DD00085BD80916E00816080936E0010928100CD
:100DE0008091810082608093810080918100816088
:100DF0008093810080918000816080938000809149
:100E0000B10084608093B1008091B00081608093D4
:100E1000B00080917A00846080937A0080917A009B
:100E2000826080937A0080917A00816080937A005A
:100E300080917A00806880937A001092C1001092AD
:100E400033021092320210923102109230020E944C
:100E500094028DE392E090932F0280932E028EE312
:100E600092E090932D0280932C0210925202809176
:100E70005702823018F098E0909352028093550206
:100E800062E370E080E090E00E940002609158020E
:100E90008DE492E00E94590368EE73E080E090E0F8
:100EA0000E94000260E38DE492E00E945004CBE4D3
:100EB000D6E4CE010197F1F760E38DE492E00E9461
:100EC00050042197F1F760E38DE492E00E94500412
:100ED00083E592E00197F1F760E28DE492E00E94F1
:100EE000500460915202606240E08DE492E00E9402
:100EF000690484E08093530240E06CE08DE492E06A
:100F00000E9469040E94B30482E08093540240E08E
:100F100066E08DE492E00E94690440E062E08DE4C6
:100F200092E00E9469048BE39FE10197F1F788E06A
:100F30008093580260E08DE492E00E94590360E0E3
:100F400081E00E94800485E491E00E94430468EE01
:100F500073E080E090E00E94000261E08AE00E947D
:100F60009F01412C512C3201439488248A94982C5F
:100F700050E0C52E50E0D52E60E080E00E94800455
:100F800080E591E00E94430460EA7FE080E090E029
:100F90000E94000251E05093C5028FB7F89440912F
:100FA0003D0250913E0260913F02709140028FBF1E
:100FB0008091B5029091B602A091B702B091B802AB
:100FC000481B590B6A0B7B0B8091C1029091C202A6
:100FD000B0E0A0E084179507A607B70708F00BC19B
:100FE000C0E08091BF02C81760F4E091BB02F091AD
:100FF000BC02EC0FF11D62E080810E949F01CF5F77
:10100000F0CF312C8091C002381608F05FC0032D5C
:1010100010E0E091BD02F091BE02E00FF11F61E02F
:1010200080810E949F01E091BD02F091BE02E00F1D
:10103000F11F60E080810E947101D301C201032C85
:1010400004C0880F991FAA1FBB1F0A94D2F75C0126
:101050007C01E094F094212C8091BF022816F8F4D2
:10106000C22DD0E0E091BB02F091BC02EC0FFD1F5D
:1010700080810E9448012496CC0FDD1FC75ADD4FA6
:10108000892B41F4888199818A299B2999838883B6
:101090002394E2CF888199818E219F21F7CFE0911F
:1010A000BD02F091BE02E00FF11F61E080810E945D
:1010B00071018091BD029091BE02080F191F60E07E
:1010C000F80180810E949F0133949CCF09E512E0D2
:1010D000E8018F8D98A1892B21F41C8E9E8E8D8E18
:1010E00019A2269685E992E08C179D0791F7B12CFD
:1010F0008091BF02B81608F053C0A12CEB2CF12C44
:10110000EE0CFF1CF701EF59FD4F7F012091C0024B
:10111000A21608F043C0F701608171810A2C02C059
:10112000769567950A94E2F7B29E900111242A0DF4
:10113000311DE9E5F2E080E0458D568D2417350735
:1011400009F4C4C08F5F36968A30B1F760FF24C0BF
:10115000E9E5F2E090E080E0448D411118C0E091B3
:10116000B902F091BA02E20FF31F408156E0589F96
:10117000F001599FF00D1124E75AFD4F448F368F2F
:10118000258F10A2178E61E00E94AF0005C0019666
:1011900036968A30910501F7A394B8CFB394A8CFBF
:1011A00080E0F80191A19111892F0A5F1F4F0C1760
:1011B0001D07B9F79FB7F89440913D0250913E0248
:1011C00060913F02709140029FBF4093B5025093DF
:1011D000B6026093B7027093B802882361F08091E1
:1011E0007A02882341F08091780290917902C0912F
:1011F0007502019719F01092C502C0E0C093370242
:101200000E94B30460E080E00E94800441E06C2F03
:101210008DE492E00E946904CC2399F0809136021B
:10122000E82FF0E0EC5CFD4FC08361E00E94800499
:1012300080E691E00E944304809136028F5F8093A4
:101240003602809136028130D1F50E94B30460E00D
:1012500071E084E392E00E946E09892BF9F488E63C
:1012600091E00E94430461E08AE00E94710168E815
:1012700073E180E090E00E94000260E08AE00E945A
:1012800071010E94B30480913602E82FF0E0EB5C1C
:10129000FD4F882391F081501292FBCF60E08AE0ED
:1012A0000E94710180E791E00E94430468EE73E0C0
:1012B00080E090E00E940002E4CF10923602C11458
:1012C000D10409F459CE0E94000056CE61705CCF63
:1012D000EE0FFF1F0590F491E02D0994FB01DC0156
:1012E0008D91019080190110D9F3990B0895F8940C
:1012F000FFCF313207080906050403313233343594
:10130000363738392A3023000040001400540000DA
:101310000000002A03FD024004D302F602E302D4D7
:101320000200000000BE043F0240046C0200000006
:1013300000320236023A0248656C6C6F576F726C6D
:101340006400456E7465722050617373776F7264C8
:101350003A00456E746572656400436F727265632E
:0C1360007400496E636F72726563740064
:107E0000112484B714BE81FFF0D085E080938100F7
:107E100082E08093C00088E18093C10086E0809377
:107E2000C20080E18093C4008EE0C9D0259A86E02C
:107E300020E33CEF91E0309385002093840096BBD3
:107E4000B09BFECF1D9AA8958150A9F7CC24DD24C4
:107E500088248394B5E0AB2EA1E19A2EF3E0BF2EE7
:107E6000A2D0813461F49FD0082FAFD0023811F036
:107E7000013811F484E001C083E08DD089C08234E0
:107E800011F484E103C0853419F485E0A6D080C0E4
:107E9000853579F488D0E82EFF2485D0082F10E0AE
:107EA000102F00270E291F29000F111F8ED06801E7
:107EB0006FC0863521F484E090D080E0DECF843638
:107EC00009F040C070D06FD0082F6DD080E0C81688
:107ED00080E7D80618F4F601B7BEE895C0E0D1E017
:107EE00062D089930C17E1F7F0E0CF16F0E7DF06D8
:107EF00018F0F601B7BEE89568D007B600FCFDCFD4
:107F0000A601A0E0B1E02C9130E011968C91119780
:107F100090E0982F8827822B932B1296FA010C0160
:107F200087BEE89511244E5F5F4FF1E0A038BF0790
:107F300051F7F601A7BEE89507B600FCFDCF97BE46
:107F4000E89526C08437B1F42ED02DD0F82E2BD052
:107F50003CD0F601EF2C8F010F5F1F4F84911BD097
:107F6000EA94F801C1F70894C11CD11CFA94CF0C13
:107F7000D11C0EC0853739F428D08EE10CD085E9AC
:107F80000AD08FE07ACF813511F488E018D01DD067
:107F900080E101D065CF982F8091C00085FFFCCF94
:107FA0009093C60008958091C00087FFFCCF809118
:107FB000C00084FD01C0A8958091C6000895E0E648
:107FC000F0E098E1908380830895EDDF803219F02E
:107FD00088E0F5DFFFCF84E1DECF1F93182FE3DFCA
:107FE0001150E9F7F2DF1F91089580E0E8DFEE27F6
:047FF000FF270994CA
:027FFE00040479
:00000001FF
